{
  "contractName": "Token",
  "abi": [
    {
      "inputs": [
        {
          "internalType": "string",
          "name": "_name",
          "type": "string"
        },
        {
          "internalType": "string",
          "name": "_symbol",
          "type": "string"
        },
        {
          "internalType": "uint256",
          "name": "_coinSupply",
          "type": "uint256"
        }
      ],
      "payable": false,
      "stateMutability": "nonpayable",
      "type": "constructor"
    },
    {
      "anonymous": false,
      "inputs": [
        {
          "indexed": true,
          "internalType": "address",
          "name": "_from",
          "type": "address"
        },
        {
          "indexed": true,
          "internalType": "address",
          "name": "_to",
          "type": "address"
        },
        {
          "indexed": false,
          "internalType": "uint256",
          "name": "_value",
          "type": "uint256"
        }
      ],
      "name": "Transfer",
      "type": "event"
    },
    {
      "constant": true,
      "inputs": [
        {
          "internalType": "address",
          "name": "",
          "type": "address"
        }
      ],
      "name": "balance",
      "outputs": [
        {
          "internalType": "uint256",
          "name": "",
          "type": "uint256"
        }
      ],
      "payable": false,
      "stateMutability": "view",
      "type": "function"
    },
    {
      "constant": true,
      "inputs": [],
      "name": "totalSupply",
      "outputs": [
        {
          "internalType": "uint256",
          "name": "",
          "type": "uint256"
        }
      ],
      "payable": false,
      "stateMutability": "view",
      "type": "function"
    },
    {
      "constant": true,
      "inputs": [
        {
          "internalType": "address",
          "name": "_owner",
          "type": "address"
        }
      ],
      "name": "getBalance",
      "outputs": [
        {
          "internalType": "uint256",
          "name": "",
          "type": "uint256"
        }
      ],
      "payable": false,
      "stateMutability": "view",
      "type": "function"
    },
    {
      "constant": false,
      "inputs": [
        {
          "internalType": "address",
          "name": "_to",
          "type": "address"
        },
        {
          "internalType": "uint256",
          "name": "_value",
          "type": "uint256"
        }
      ],
      "name": "transfer",
      "outputs": [
        {
          "internalType": "bool",
          "name": "",
          "type": "bool"
        }
      ],
      "payable": false,
      "stateMutability": "nonpayable",
      "type": "function"
    }
  ],
  "bytecode": "0x608060405234801561001057600080fd5b5060405161077b38038061077b8339818101604052606081101561003357600080fd5b810190808051604051939291908464010000000082111561005357600080fd5b8382019150602082018581111561006957600080fd5b825186600182028301116401000000008211171561008657600080fd5b8083526020830192505050908051906020019080838360005b838110156100ba57808201518184015260208101905061009f565b50505050905090810190601f1680156100e75780820380516001836020036101000a031916815260200191505b506040526020018051604051939291908464010000000082111561010a57600080fd5b8382019150602082018581111561012057600080fd5b825186600182028301116401000000008211171561013d57600080fd5b8083526020830192505050908051906020019080838360005b83811015610171578082015181840152602081019050610156565b50505050905090810190601f16801561019e5780820380516001836020036101000a031916815260200191505b5060405260200180519060200190929190505050336000806101000a81548173ffffffffffffffffffffffffffffffffffffffff021916908373ffffffffffffffffffffffffffffffffffffffff1602179055508260019080519060200190610208929190610296565b50816002908051906020019061021f929190610296565b5080600381905550600354600460008060009054906101000a900473ffffffffffffffffffffffffffffffffffffffff1673ffffffffffffffffffffffffffffffffffffffff1673ffffffffffffffffffffffffffffffffffffffff1681526020019081526020016000208190555050505061033b565b828054600181600116156101000203166002900490600052602060002090601f016020900481019282601f106102d757805160ff1916838001178555610305565b82800160010185558215610305579182015b828111156103045782518255916020019190600101906102e9565b5b5090506103129190610316565b5090565b61033891905b8082111561033457600081600090555060010161031c565b5090565b90565b6104318061034a6000396000f3fe608060405234801561001057600080fd5b506004361061004c5760003560e01c806318160ddd14610051578063a9059cbb1461006f578063e3d670d7146100d5578063f8b2cb4f1461012d575b600080fd5b610059610185565b6040518082815260200191505060405180910390f35b6100bb6004803603604081101561008557600080fd5b81019080803573ffffffffffffffffffffffffffffffffffffffff1690602001909291908035906020019092919050505061018f565b604051808215151515815260200191505060405180910390f35b610117600480360360208110156100eb57600080fd5b81019080803573ffffffffffffffffffffffffffffffffffffffff16906020019092919050505061039b565b6040518082815260200191505060405180910390f35b61016f6004803603602081101561014357600080fd5b81019080803573ffffffffffffffffffffffffffffffffffffffff1690602001909291905050506103b3565b6040518082815260200191505060405180910390f35b6000600354905090565b600081600460003373ffffffffffffffffffffffffffffffffffffffff1673ffffffffffffffffffffffffffffffffffffffff16815260200190815260200160002054116101dc57600080fd5b6000339050836000806101000a81548173ffffffffffffffffffffffffffffffffffffffff021916908373ffffffffffffffffffffffffffffffffffffffff1602179055508373ffffffffffffffffffffffffffffffffffffffff168173ffffffffffffffffffffffffffffffffffffffff167fddf252ad1be2c89b69c2b068fc378daa952ba7f163c4a11628f55a4df523b3ef856040518082815260200191505060405180910390a382600460008373ffffffffffffffffffffffffffffffffffffffff1673ffffffffffffffffffffffffffffffffffffffff1681526020019081526020016000205403600460008373ffffffffffffffffffffffffffffffffffffffff1673ffffffffffffffffffffffffffffffffffffffff1681526020019081526020016000208190555082600460008673ffffffffffffffffffffffffffffffffffffffff1673ffffffffffffffffffffffffffffffffffffffff1681526020019081526020016000205401600460008673ffffffffffffffffffffffffffffffffffffffff1673ffffffffffffffffffffffffffffffffffffffff16815260200190815260200160002081905550600191505092915050565b60046020528060005260406000206000915090505481565b6000600460008373ffffffffffffffffffffffffffffffffffffffff1673ffffffffffffffffffffffffffffffffffffffff16815260200190815260200160002054905091905056fea265627a7a72315820548e576fc3c6b8ab1433de4566602345685377a44a9ea34b1824e020d14de4de64736f6c63430005100032",
  "source": "pragma solidity >=0.4.21 <0.7.0;\r\n\r\ncontract Token {\r\n\r\n//Variable declaration\r\n  address owner;\r\n  string name;\r\n  string symbol;\r\n  uint256 coinSupply;\r\n\r\n  //track the balance holders of our token\r\n  mapping(address => uint256) public balance;\r\n\r\n  constructor(string memory _name, string memory _symbol, uint256 _coinSupply) public { //public means other contracts can call these data types\r\n    //Creating our coin upon deployment\r\n    owner = msg.sender;\r\n    name = _name;\r\n    symbol = _symbol;\r\n    coinSupply = _coinSupply;\r\n\r\n    //Initalize the supply to contract creator\r\n    balance[owner] = coinSupply;\r\n  }\r\n  //Event Listener for transcations over this smart contract\r\n  event Transfer(address indexed _from, address indexed _to, uint256 _value);\r\n\r\n  /* These functions allow us to check supply, balances, and complete token transfers */\r\n  function totalSupply() view public returns (uint256) {\r\n    return coinSupply;\r\n  }\r\n  \r\n  function getBalance(address _owner) view public returns (uint256) {\r\n    return balance[_owner];\r\n  }\r\n\r\n  function transfer(address _to, uint256 _value) public returns (bool) {\r\n\r\n    //This verifies the contract caller has appropiate Token funds\r\n    require (balance[msg.sender] > _value);\r\n\r\n    //Establishing transcation\r\n    address _from = msg.sender;\r\n    owner = _to;\r\n\r\n    //calling our event emitter\r\n    emit Transfer(_from, _to, _value);\r\n\r\n    //Adjusting values\r\n    balance[_from] = balance[_from] - _value;\r\n    balance[_to] = balance[_to] + _value;\r\n    return true;\r\n  }\r\n}\r\n",
  "sourcePath": "C:\\Users\\marko\\Documents\\GitHub\\A-Brief-Introduction-to-Blockchain\\contracts\\Token.sol",
  "compiler": {
    "name": "solc",
    "version": "0.5.16+commit.9c3226ce.Emscripten.clang"
  },
  "schemaVersion": "3.0.23",
  "updatedAt": "2020-05-12T19:26:52.672Z",
  "networkType": "ethereum",
  "devdoc": {
    "methods": {}
  },
  "userdoc": {
    "methods": {}
  }
}